{
  "_format": "hh-sol-artifact-1",
  "contractName": "Notes",
  "sourceName": "contracts/Notes.sol",
  "abi": [
    {
      "anonymous": false,
      "inputs": [
        {
          "indexed": true,
          "internalType": "address",
          "name": "writer",
          "type": "address"
        }
      ],
      "name": "NoteDeleted",
      "type": "event"
    },
    {
      "anonymous": false,
      "inputs": [
        {
          "indexed": true,
          "internalType": "address",
          "name": "writer",
          "type": "address"
        },
        {
          "indexed": false,
          "internalType": "string",
          "name": "note",
          "type": "string"
        }
      ],
      "name": "NoteWritten",
      "type": "event"
    },
    {
      "inputs": [],
      "name": "MAX_NOTE_LENGTH",
      "outputs": [
        {
          "internalType": "uint256",
          "name": "",
          "type": "uint256"
        }
      ],
      "stateMutability": "view",
      "type": "function"
    },
    {
      "inputs": [
        {
          "internalType": "address",
          "name": "_someOnesAddress",
          "type": "address"
        }
      ],
      "name": "checkNote",
      "outputs": [
        {
          "internalType": "string",
          "name": "",
          "type": "string"
        }
      ],
      "stateMutability": "view",
      "type": "function"
    },
    {
      "inputs": [],
      "name": "checkOwnNote",
      "outputs": [
        {
          "internalType": "string",
          "name": "",
          "type": "string"
        }
      ],
      "stateMutability": "view",
      "type": "function"
    },
    {
      "inputs": [],
      "name": "deleteOwnNote",
      "outputs": [],
      "stateMutability": "nonpayable",
      "type": "function"
    },
    {
      "inputs": [
        {
          "internalType": "address",
          "name": "",
          "type": "address"
        }
      ],
      "name": "ownerToNotes",
      "outputs": [
        {
          "internalType": "string",
          "name": "",
          "type": "string"
        }
      ],
      "stateMutability": "view",
      "type": "function"
    },
    {
      "inputs": [
        {
          "internalType": "string",
          "name": "_text",
          "type": "string"
        }
      ],
      "name": "writeNote",
      "outputs": [],
      "stateMutability": "nonpayable",
      "type": "function"
    }
  ],
  "bytecode": "0x6080604052348015600f57600080fd5b50610ecb8061001f6000396000f3fe608060405234801561001057600080fd5b50600436106100625760003560e01c806329a45d4d14610067578063404e9b03146100855780635a6d8c881461008f578063b9487d16146100ad578063cbf5a492146100c9578063f60bc15a146100f9575b600080fd5b61006f610129565b60405161007c9190610786565b60405180910390f35b61008d610284565b005b6100976103a0565b6040516100a491906107c1565b60405180910390f35b6100c760048036038101906100c2919061084b565b6103a5565b005b6100e360048036038101906100de91906108f6565b61049c565b6040516100f09190610786565b60405180910390f35b610113600480360381019061010e91906108f6565b6105f9565b6040516101209190610786565b60405180910390f35b606060008060003373ffffffffffffffffffffffffffffffffffffffff1673ffffffffffffffffffffffffffffffffffffffff168152602001908152602001600020805461017690610952565b9050116101b8576040517f08c379a00000000000000000000000000000000000000000000000000000000081526004016101af906109f5565b60405180910390fd5b6000803373ffffffffffffffffffffffffffffffffffffffff1673ffffffffffffffffffffffffffffffffffffffff168152602001908152602001600020805461020190610952565b80601f016020809104026020016040519081016040528092919081815260200182805461022d90610952565b801561027a5780601f1061024f5761010080835404028352916020019161027a565b820191906000526020600020905b81548152906001019060200180831161025d57829003601f168201915b5050505050905090565b60008060003373ffffffffffffffffffffffffffffffffffffffff1673ffffffffffffffffffffffffffffffffffffffff16815260200190815260200160002080546102cf90610952565b905011610311576040517f08c379a000000000000000000000000000000000000000000000000000000000815260040161030890610a61565b60405180910390fd5b6000803373ffffffffffffffffffffffffffffffffffffffff1673ffffffffffffffffffffffffffffffffffffffff168152602001908152602001600020600061035b9190610699565b3373ffffffffffffffffffffffffffffffffffffffff167f8921641bc998f32f31ee9290f5093c2e4d1896047a96deaf76e52da840b5aa1260405160405180910390a2565b60ff81565b6000828290501180156103bb575060ff82829050105b6103fa576040517f08c379a00000000000000000000000000000000000000000000000000000000081526004016103f190610acd565b60405180910390fd5b81816000803373ffffffffffffffffffffffffffffffffffffffff1673ffffffffffffffffffffffffffffffffffffffff1681526020019081526020016000209182610447929190610cd3565b503373ffffffffffffffffffffffffffffffffffffffff167f86ed08861992810cac2bf25a6f6b8927670cee49ec8985e091a644947a95024c8383604051610490929190610ddf565b60405180910390a25050565b606060008060008473ffffffffffffffffffffffffffffffffffffffff1673ffffffffffffffffffffffffffffffffffffffff16815260200190815260200160002080546104e990610952565b90501161052b576040517f08c379a000000000000000000000000000000000000000000000000000000000815260040161052290610e75565b60405180910390fd5b6000808373ffffffffffffffffffffffffffffffffffffffff1673ffffffffffffffffffffffffffffffffffffffff168152602001908152602001600020805461057490610952565b80601f01602080910402602001604051908101604052809291908181526020018280546105a090610952565b80156105ed5780601f106105c2576101008083540402835291602001916105ed565b820191906000526020600020905b8154815290600101906020018083116105d057829003601f168201915b50505050509050919050565b6000602052806000526040600020600091509050805461061890610952565b80601f016020809104026020016040519081016040528092919081815260200182805461064490610952565b80156106915780601f1061066657610100808354040283529160200191610691565b820191906000526020600020905b81548152906001019060200180831161067457829003601f168201915b505050505081565b5080546106a590610952565b6000825580601f106106b757506106d6565b601f0160209004906000526020600020908101906106d591906106d9565b5b50565b5b808211156106f25760008160009055506001016106da565b5090565b600081519050919050565b600082825260208201905092915050565b60005b83811015610730578082015181840152602081019050610715565b60008484015250505050565b6000601f19601f8301169050919050565b6000610758826106f6565b6107628185610701565b9350610772818560208601610712565b61077b8161073c565b840191505092915050565b600060208201905081810360008301526107a0818461074d565b905092915050565b6000819050919050565b6107bb816107a8565b82525050565b60006020820190506107d660008301846107b2565b92915050565b600080fd5b600080fd5b600080fd5b600080fd5b600080fd5b60008083601f84011261080b5761080a6107e6565b5b8235905067ffffffffffffffff811115610828576108276107eb565b5b602083019150836001820283011115610844576108436107f0565b5b9250929050565b60008060208385031215610862576108616107dc565b5b600083013567ffffffffffffffff8111156108805761087f6107e1565b5b61088c858286016107f5565b92509250509250929050565b600073ffffffffffffffffffffffffffffffffffffffff82169050919050565b60006108c382610898565b9050919050565b6108d3816108b8565b81146108de57600080fd5b50565b6000813590506108f0816108ca565b92915050565b60006020828403121561090c5761090b6107dc565b5b600061091a848285016108e1565b91505092915050565b7f4e487b7100000000000000000000000000000000000000000000000000000000600052602260045260246000fd5b6000600282049050600182168061096a57607f821691505b60208210810361097d5761097c610923565b5b50919050565b7f4164647265737320646f6573206e6f7420686176652061206e6f74652077726960008201527f7474656e20796574000000000000000000000000000000000000000000000000602082015250565b60006109df602883610701565b91506109ea82610983565b604082019050919050565b60006020820190508181036000830152610a0e816109d2565b9050919050565b7f4164647265737320646f6573206e6f7420686176652061204e6f746500000000600082015250565b6000610a4b601c83610701565b9150610a5682610a15565b602082019050919050565b60006020820190508181036000830152610a7a81610a3e565b9050919050565b7f496e76616c6964204e6f7465206c656e67746800000000000000000000000000600082015250565b6000610ab7601383610701565b9150610ac282610a81565b602082019050919050565b60006020820190508181036000830152610ae681610aaa565b9050919050565b600082905092915050565b7f4e487b7100000000000000000000000000000000000000000000000000000000600052604160045260246000fd5b60008190508160005260206000209050919050565b60006020601f8301049050919050565b600082821b905092915050565b600060088302610b897fffffffffffffffffffffffffffffffffffffffffffffffffffffffffffffffff82610b4c565b610b938683610b4c565b95508019841693508086168417925050509392505050565b6000819050919050565b6000610bd0610bcb610bc6846107a8565b610bab565b6107a8565b9050919050565b6000819050919050565b610bea83610bb5565b610bfe610bf682610bd7565b848454610b59565b825550505050565b600090565b610c13610c06565b610c1e818484610be1565b505050565b5b81811015610c4257610c37600082610c0b565b600181019050610c24565b5050565b601f821115610c8757610c5881610b27565b610c6184610b3c565b81016020851015610c70578190505b610c84610c7c85610b3c565b830182610c23565b50505b505050565b600082821c905092915050565b6000610caa60001984600802610c8c565b1980831691505092915050565b6000610cc38383610c99565b9150826002028217905092915050565b610cdd8383610aed565b67ffffffffffffffff811115610cf657610cf5610af8565b5b610d008254610952565b610d0b828285610c46565b6000601f831160018114610d3a5760008415610d28578287013590505b610d328582610cb7565b865550610d9a565b601f198416610d4886610b27565b60005b82811015610d7057848901358255600182019150602085019450602081019050610d4b565b86831015610d8d5784890135610d89601f891682610c99565b8355505b6001600288020188555050505b50505050505050565b82818337600083830152505050565b6000610dbe8385610701565b9350610dcb838584610da3565b610dd48361073c565b840190509392505050565b60006020820190508181036000830152610dfa818486610db2565b90509392505050565b7f4e6f206e6f74657320666f756e6420666f722074686520676976656e2061646460008201527f7265737300000000000000000000000000000000000000000000000000000000602082015250565b6000610e5f602483610701565b9150610e6a82610e03565b604082019050919050565b60006020820190508181036000830152610e8e81610e52565b905091905056fea264697066735822122050fa776c81229d629ef4b3a50de3a92d62a89f98fc44ed78b682cbb05d766b5964736f6c634300081b0033",
  "linkReferences": {},
  "deployedLinkReferences": {}
}